{
  "_format": "hh-sol-artifact-1",
  "contractName": "SplitWise",
  "sourceName": "contracts/SplitWise.sol",
  "abi": [
    {
      "inputs": [],
      "stateMutability": "nonpayable",
      "type": "constructor"
    },
    {
      "inputs": [],
      "name": "InsufficientFunds",
      "type": "error"
    },
    {
      "inputs": [],
      "name": "InvalidAddress",
      "type": "error"
    },
    {
      "inputs": [],
      "name": "TranasctionFailed",
      "type": "error"
    },
    {
      "inputs": [],
      "name": "UnAuthorise",
      "type": "error"
    },
    {
      "anonymous": false,
      "inputs": [
        {
          "indexed": true,
          "internalType": "uint256",
          "name": "id",
          "type": "uint256"
        },
        {
          "indexed": true,
          "internalType": "uint256",
          "name": "amount",
          "type": "uint256"
        },
        {
          "indexed": true,
          "internalType": "address",
          "name": "payer",
          "type": "address"
        },
        {
          "indexed": false,
          "internalType": "address",
          "name": "vendor",
          "type": "address"
        },
        {
          "indexed": false,
          "internalType": "string",
          "name": "purpose",
          "type": "string"
        }
      ],
      "name": "AddExpenses",
      "type": "event"
    },
    {
      "anonymous": false,
      "inputs": [
        {
          "indexed": true,
          "internalType": "address",
          "name": "from",
          "type": "address"
        },
        {
          "indexed": true,
          "internalType": "uint256",
          "name": "amount",
          "type": "uint256"
        },
        {
          "indexed": true,
          "internalType": "address[]",
          "name": "user",
          "type": "address[]"
        }
      ],
      "name": "MakePayment",
      "type": "event"
    },
    {
      "anonymous": false,
      "inputs": [
        {
          "indexed": true,
          "internalType": "bytes32",
          "name": "role",
          "type": "bytes32"
        },
        {
          "indexed": true,
          "internalType": "bytes32",
          "name": "previousAdminRole",
          "type": "bytes32"
        },
        {
          "indexed": true,
          "internalType": "bytes32",
          "name": "newAdminRole",
          "type": "bytes32"
        }
      ],
      "name": "RoleAdminChanged",
      "type": "event"
    },
    {
      "anonymous": false,
      "inputs": [
        {
          "indexed": true,
          "internalType": "bytes32",
          "name": "role",
          "type": "bytes32"
        },
        {
          "indexed": true,
          "internalType": "address",
          "name": "account",
          "type": "address"
        },
        {
          "indexed": true,
          "internalType": "address",
          "name": "sender",
          "type": "address"
        }
      ],
      "name": "RoleGranted",
      "type": "event"
    },
    {
      "anonymous": false,
      "inputs": [
        {
          "indexed": true,
          "internalType": "bytes32",
          "name": "role",
          "type": "bytes32"
        },
        {
          "indexed": true,
          "internalType": "address",
          "name": "account",
          "type": "address"
        },
        {
          "indexed": true,
          "internalType": "address",
          "name": "sender",
          "type": "address"
        }
      ],
      "name": "RoleRevoked",
      "type": "event"
    },
    {
      "inputs": [],
      "name": "DEFAULT_ADMIN_ROLE",
      "outputs": [
        {
          "internalType": "bytes32",
          "name": "",
          "type": "bytes32"
        }
      ],
      "stateMutability": "view",
      "type": "function"
    },
    {
      "inputs": [
        {
          "internalType": "address",
          "name": "user",
          "type": "address"
        },
        {
          "internalType": "string",
          "name": "_name",
          "type": "string"
        }
      ],
      "name": "addContributors",
      "outputs": [],
      "stateMutability": "nonpayable",
      "type": "function"
    },
    {
      "inputs": [
        {
          "internalType": "string",
          "name": "_purpose",
          "type": "string"
        },
        {
          "internalType": "uint256",
          "name": "_amount",
          "type": "uint256"
        },
        {
          "internalType": "address[]",
          "name": "_contributor",
          "type": "address[]"
        },
        {
          "internalType": "address",
          "name": "_vendor",
          "type": "address"
        }
      ],
      "name": "addExpenses",
      "outputs": [],
      "stateMutability": "payable",
      "type": "function"
    },
    {
      "inputs": [
        {
          "internalType": "address",
          "name": "user",
          "type": "address"
        }
      ],
      "name": "addWhiteList",
      "outputs": [
        {
          "internalType": "string",
          "name": "name",
          "type": "string"
        },
        {
          "internalType": "bool",
          "name": "isVerified",
          "type": "bool"
        },
        {
          "internalType": "uint256",
          "name": "lend",
          "type": "uint256"
        },
        {
          "internalType": "uint256",
          "name": "borrow",
          "type": "uint256"
        }
      ],
      "stateMutability": "view",
      "type": "function"
    },
    {
      "inputs": [
        {
          "internalType": "address",
          "name": "payer",
          "type": "address"
        },
        {
          "internalType": "address",
          "name": "user",
          "type": "address"
        }
      ],
      "name": "contributors",
      "outputs": [
        {
          "internalType": "string",
          "name": "name",
          "type": "string"
        },
        {
          "internalType": "bool",
          "name": "isVerified",
          "type": "bool"
        },
        {
          "internalType": "uint256",
          "name": "lend",
          "type": "uint256"
        },
        {
          "internalType": "uint256",
          "name": "borrow",
          "type": "uint256"
        }
      ],
      "stateMutability": "view",
      "type": "function"
    },
    {
      "inputs": [
        {
          "internalType": "uint256",
          "name": "id",
          "type": "uint256"
        }
      ],
      "name": "expenses",
      "outputs": [
        {
          "internalType": "string",
          "name": "purpose",
          "type": "string"
        },
        {
          "internalType": "uint256",
          "name": "amount",
          "type": "uint256"
        },
        {
          "internalType": "address",
          "name": "vendor",
          "type": "address"
        },
        {
          "internalType": "address",
          "name": "payer",
          "type": "address"
        }
      ],
      "stateMutability": "view",
      "type": "function"
    },
    {
      "inputs": [],
      "name": "getDetails",
      "outputs": [
        {
          "components": [
            {
              "internalType": "string",
              "name": "name",
              "type": "string"
            },
            {
              "internalType": "bool",
              "name": "isVerified",
              "type": "bool"
            },
            {
              "internalType": "uint256",
              "name": "lend",
              "type": "uint256"
            },
            {
              "internalType": "uint256",
              "name": "borrow",
              "type": "uint256"
            }
          ],
          "internalType": "struct SplitWise.Contributor[]",
          "name": "",
          "type": "tuple[]"
        },
        {
          "internalType": "uint256",
          "name": "",
          "type": "uint256"
        },
        {
          "internalType": "uint256",
          "name": "",
          "type": "uint256"
        }
      ],
      "stateMutability": "view",
      "type": "function"
    },
    {
      "inputs": [
        {
          "internalType": "bytes32",
          "name": "role",
          "type": "bytes32"
        }
      ],
      "name": "getRoleAdmin",
      "outputs": [
        {
          "internalType": "bytes32",
          "name": "",
          "type": "bytes32"
        }
      ],
      "stateMutability": "view",
      "type": "function"
    },
    {
      "inputs": [
        {
          "internalType": "bytes32",
          "name": "role",
          "type": "bytes32"
        },
        {
          "internalType": "address",
          "name": "account",
          "type": "address"
        }
      ],
      "name": "grantRole",
      "outputs": [],
      "stateMutability": "nonpayable",
      "type": "function"
    },
    {
      "inputs": [
        {
          "internalType": "bytes32",
          "name": "role",
          "type": "bytes32"
        },
        {
          "internalType": "address",
          "name": "account",
          "type": "address"
        }
      ],
      "name": "hasRole",
      "outputs": [
        {
          "internalType": "bool",
          "name": "",
          "type": "bool"
        }
      ],
      "stateMutability": "view",
      "type": "function"
    },
    {
      "inputs": [],
      "name": "makePayment",
      "outputs": [],
      "stateMutability": "payable",
      "type": "function"
    },
    {
      "inputs": [
        {
          "internalType": "bytes32",
          "name": "role",
          "type": "bytes32"
        },
        {
          "internalType": "address",
          "name": "account",
          "type": "address"
        }
      ],
      "name": "renounceRole",
      "outputs": [],
      "stateMutability": "nonpayable",
      "type": "function"
    },
    {
      "inputs": [
        {
          "internalType": "bytes32",
          "name": "role",
          "type": "bytes32"
        },
        {
          "internalType": "address",
          "name": "account",
          "type": "address"
        }
      ],
      "name": "revokeRole",
      "outputs": [],
      "stateMutability": "nonpayable",
      "type": "function"
    },
    {
      "inputs": [
        {
          "internalType": "bytes4",
          "name": "interfaceId",
          "type": "bytes4"
        }
      ],
      "name": "supportsInterface",
      "outputs": [
        {
          "internalType": "bool",
          "name": "",
          "type": "bool"
        }
      ],
      "stateMutability": "view",
      "type": "function"
    }
  ],
  "bytecode": "0x60806040523480156200001157600080fd5b5060016000819055506200002f6000801b336200004d60201b60201c565b620000476000801b6000801b6200006360201b60201c565b6200024b565b6200005f8282620000c760201b60201c565b5050565b60006200007683620001b860201b60201c565b90508160016000858152602001908152602001600020600101819055508181847fbd79b86ffe0ab8e8776151514217cd7cacd52c909f66475c3af44e129f0b00ff60405160405180910390a4505050565b620000d98282620001d860201b60201c565b620001b457600180600084815260200190815260200160002060000160008373ffffffffffffffffffffffffffffffffffffffff1673ffffffffffffffffffffffffffffffffffffffff16815260200190815260200160002060006101000a81548160ff021916908315150217905550620001596200024360201b60201c565b73ffffffffffffffffffffffffffffffffffffffff168173ffffffffffffffffffffffffffffffffffffffff16837f2f8788117e7eff1d82e926ec794901d17c78024a50270940304540a733656f0d60405160405180910390a45b5050565b600060016000838152602001908152602001600020600101549050919050565b60006001600084815260200190815260200160002060000160008373ffffffffffffffffffffffffffffffffffffffff1673ffffffffffffffffffffffffffffffffffffffff16815260200190815260200160002060009054906101000a900460ff16905092915050565b600033905090565b613020806200025b6000396000f3fe6080604052600436106100dd5760003560e01c8063a217fddf1161007f578063d8d7970011610059578063d8d79700146102db578063e73bed30146102e5578063e7cd4a041461030e578063fbbf93a01461034e576100dd565b8063a217fddf14610247578063af4afe0a14610272578063d547741f146102b2576100dd565b806336568abe116100bb57806336568abe14610185578063830277dc146101ae5780638c7ae442146101ca57806391d148541461020a576100dd565b806301ffc9a7146100e2578063248a9ca31461011f5780632f2ff15d1461015c575b600080fd5b3480156100ee57600080fd5b5061010960048036038101906101049190611ffa565b61037b565b6040516101169190612042565b60405180910390f35b34801561012b57600080fd5b5061014660048036038101906101419190612093565b6103f5565b60405161015391906120cf565b60405180910390f35b34801561016857600080fd5b50610183600480360381019061017e9190612148565b610415565b005b34801561019157600080fd5b506101ac60048036038101906101a79190612148565b610436565b005b6101c860048036038101906101c39190612279565b6104b9565b005b3480156101d657600080fd5b506101f160048036038101906101ec9190612320565b61084d565b60405161020194939291906123ff565b60405180910390f35b34801561021657600080fd5b50610231600480360381019061022c9190612148565b61091f565b60405161023e9190612042565b60405180910390f35b34801561025357600080fd5b5061025c61098a565b60405161026991906120cf565b60405180910390f35b34801561027e57600080fd5b506102996004803603810190610294919061244b565b610991565b6040516102a99493929190612487565b60405180910390f35b3480156102be57600080fd5b506102d960048036038101906102d49190612148565b610a89565b005b6102e3610aaa565b005b3480156102f157600080fd5b5061030c600480360381019061030791906124d3565b610f5d565b005b34801561031a57600080fd5b5061033560048036038101906103309190612533565b6110b0565b60405161034594939291906123ff565b60405180910390f35b34801561035a57600080fd5b50610363611175565b604051610372939291906126ed565b60405180910390f35b60007f7965db0b000000000000000000000000000000000000000000000000000000007bffffffffffffffffffffffffffffffffffffffffffffffffffffffff1916827bffffffffffffffffffffffffffffffffffffffffffffffffffffffff191614806103ee57506103ed826115ac565b5b9050919050565b600060016000838152602001908152602001600020600101549050919050565b61041e826103f5565b61042781611616565b610431838361162a565b505050565b61043e61170a565b73ffffffffffffffffffffffffffffffffffffffff168173ffffffffffffffffffffffffffffffffffffffff16146104ab576040517f08c379a00000000000000000000000000000000000000000000000000000000081526004016104a29061279d565b60405180910390fd5b6104b58282611712565b5050565b6104c16117f4565b6000600560003373ffffffffffffffffffffffffffffffffffffffff1673ffffffffffffffffffffffffffffffffffffffff16815260200190815260200160002060405180608001604052908160008201805461051d906127ec565b80601f0160208091040260200160405190810160405280929190818152602001828054610549906127ec565b80156105965780601f1061056b57610100808354040283529160200191610596565b820191906000526020600020905b81548152906001019060200180831161057957829003601f168201915b505050505081526020016001820160009054906101000a900460ff16151515158152602001600282015481526020016003820154815250509050806020015161060b576040517f58e11a6e00000000000000000000000000000000000000000000000000000000815260040160405180910390fd5b84341015610645576040517f356680b700000000000000000000000000000000000000000000000000000000815260040160405180910390fd5b60006106516002611843565b90506000600360008381526020019081526020016000209050888882600001918261067d929190612a03565b50868160010181905550838160020160006101000a81548173ffffffffffffffffffffffffffffffffffffffff021916908373ffffffffffffffffffffffffffffffffffffffff16021790555060008473ffffffffffffffffffffffffffffffffffffffff16346040516106f090612b04565b60006040518083038185875af1925050503d806000811461072d576040519150601f19603f3d011682016040523d82523d6000602084013e610732565b606091505b505090508061076d576040517f356680b700000000000000000000000000000000000000000000000000000000815260040160405180910390fd5b338260030160006101000a81548173ffffffffffffffffffffffffffffffffffffffff021916908373ffffffffffffffffffffffffffffffffffffffff16021790555060006001888890506107c29190612b48565b896107cd9190612bab565b90506107da888883611851565b6107e46002611e33565b3373ffffffffffffffffffffffffffffffffffffffff1689857fb39c4a97d50b9abec360d305b30787baa95b952cc40ec1aff0153cdf881ff26b898f8f60405161083093929190612c18565b60405180910390a45050505050610845611e49565b505050505050565b60046020528160005260406000206020528060005260406000206000915091505080600001805461087d906127ec565b80601f01602080910402602001604051908101604052809291908181526020018280546108a9906127ec565b80156108f65780601f106108cb576101008083540402835291602001916108f6565b820191906000526020600020905b8154815290600101906020018083116108d957829003601f168201915b5050505050908060010160009054906101000a900460ff16908060020154908060030154905084565b60006001600084815260200190815260200160002060000160008373ffffffffffffffffffffffffffffffffffffffff1673ffffffffffffffffffffffffffffffffffffffff16815260200190815260200160002060009054906101000a900460ff16905092915050565b6000801b81565b60036020528060005260406000206000915090508060000180546109b4906127ec565b80601f01602080910402602001604051908101604052809291908181526020018280546109e0906127ec565b8015610a2d5780601f10610a0257610100808354040283529160200191610a2d565b820191906000526020600020905b815481529060010190602001808311610a1057829003601f168201915b5050505050908060010154908060020160009054906101000a900473ffffffffffffffffffffffffffffffffffffffff16908060030160009054906101000a900473ffffffffffffffffffffffffffffffffffffffff16905084565b610a92826103f5565b610a9b81611616565b610aa58383611712565b505050565b610ab26117f4565b6000600560003373ffffffffffffffffffffffffffffffffffffffff1673ffffffffffffffffffffffffffffffffffffffff168152602001908152602001600020604051806080016040529081600082018054610b0e906127ec565b80601f0160208091040260200160405190810160405280929190818152602001828054610b3a906127ec565b8015610b875780601f10610b5c57610100808354040283529160200191610b87565b820191906000526020600020905b815481529060010190602001808311610b6a57829003601f168201915b505050505081526020016001820160009054906101000a900460ff161515151581526020016002820154815260200160038201548152505090508060200151610bfc576040517f58e11a6e00000000000000000000000000000000000000000000000000000000815260040160405180910390fd5b6000610c06611175565b9250505080341015610c44576040517f356680b700000000000000000000000000000000000000000000000000000000815260040160405180910390fd5b6000600680549050905060005b81811015610ef4576000600460003373ffffffffffffffffffffffffffffffffffffffff1673ffffffffffffffffffffffffffffffffffffffff168152602001908152602001600020600060068481548110610cb057610caf612c4a565b5b9060005260206000200160009054906101000a900473ffffffffffffffffffffffffffffffffffffffff1673ffffffffffffffffffffffffffffffffffffffff1673ffffffffffffffffffffffffffffffffffffffff168152602001908152602001600020905060006004600060068581548110610d3157610d30612c4a565b5b9060005260206000200160009054906101000a900473ffffffffffffffffffffffffffffffffffffffff1673ffffffffffffffffffffffffffffffffffffffff1673ffffffffffffffffffffffffffffffffffffffff16815260200190815260200160002060003373ffffffffffffffffffffffffffffffffffffffff1673ffffffffffffffffffffffffffffffffffffffff16815260200190815260200160002090506000826003015490506000811115610ede57600060068581548110610dfd57610dfc612c4a565b5b9060005260206000200160009054906101000a900473ffffffffffffffffffffffffffffffffffffffff1673ffffffffffffffffffffffffffffffffffffffff1682604051610e4b90612b04565b60006040518083038185875af1925050503d8060008114610e88576040519150601f19603f3d011682016040523d82523d6000602084013e610e8d565b606091505b5050905080610ec8576040517f6d08c74700000000000000000000000000000000000000000000000000000000815260040160405180910390fd5b6000846003018190555060008360020181905550505b5050508080610eec90612c79565b915050610c51565b506006604051610f049190612ddf565b6040518091039020343373ffffffffffffffffffffffffffffffffffffffff167fc98180b4631ed3929291375e30c33ecc3e7526676e488436245369d5c326807360405160405180910390a4505050610f5b611e49565b565b6000801b610f6a81611616565b83600073ffffffffffffffffffffffffffffffffffffffff168173ffffffffffffffffffffffffffffffffffffffff1603610fd1576040517fe6c4247b00000000000000000000000000000000000000000000000000000000815260040160405180910390fd5b6000600560008773ffffffffffffffffffffffffffffffffffffffff1673ffffffffffffffffffffffffffffffffffffffff16815260200190815260200160002090508484826000019182611027929190612a03565b5060018160010160006101000a81548160ff0219169083151502179055506006869080600181540180825580915050600190039060005260206000200160009091909190916101000a81548173ffffffffffffffffffffffffffffffffffffffff021916908373ffffffffffffffffffffffffffffffffffffffff160217905550505050505050565b60056020528060005260406000206000915090508060000180546110d3906127ec565b80601f01602080910402602001604051908101604052809291908181526020018280546110ff906127ec565b801561114c5780601f106111215761010080835404028352916020019161114c565b820191906000526020600020905b81548152906001019060200180831161112f57829003601f168201915b5050505050908060010160009054906101000a900460ff16908060020154908060030154905084565b6060600080600060068054905090506000806000806001856111979190612df6565b67ffffffffffffffff8111156111b0576111af612828565b5b6040519080825280602002602001820160405280156111e957816020015b6111d6611f6e565b8152602001906001900390816111ce5790505b50905060005b858160ff161015611598576000600460003373ffffffffffffffffffffffffffffffffffffffff1673ffffffffffffffffffffffffffffffffffffffff168152602001908152602001600020600060068460ff168154811061125457611253612c4a565b5b9060005260206000200160009054906101000a900473ffffffffffffffffffffffffffffffffffffffff1673ffffffffffffffffffffffffffffffffffffffff1673ffffffffffffffffffffffffffffffffffffffff1681526020019081526020016000206040518060800160405290816000820180546112d4906127ec565b80601f0160208091040260200160405190810160405280929190818152602001828054611300906127ec565b801561134d5780601f106113225761010080835404028352916020019161134d565b820191906000526020600020905b81548152906001019060200180831161133057829003601f168201915b505050505081526020016001820160009054906101000a900460ff1615151515815260200160028201548152602001600382015481525050905060008160400151118061139e575060008160600151115b156115605760006004600060068560ff16815481106113c0576113bf612c4a565b5b9060005260206000200160009054906101000a900473ffffffffffffffffffffffffffffffffffffffff1673ffffffffffffffffffffffffffffffffffffffff1673ffffffffffffffffffffffffffffffffffffffff16815260200190815260200160002060003373ffffffffffffffffffffffffffffffffffffffff1673ffffffffffffffffffffffffffffffffffffffff16815260200190815260200160002060405180608001604052908160008201805461147d906127ec565b80601f01602080910402602001604051908101604052809291908181526020018280546114a9906127ec565b80156114f65780601f106114cb576101008083540402835291602001916114f6565b820191906000526020600020905b8154815290600101906020018083116114d957829003601f168201915b505050505081526020016001820160009054906101000a900460ff161515151581526020016002820154815260200160038201548152505090508084868151811061154457611543612c4a565b5b602002602001018190525060018561155c9190612b48565b9450505b8060400151866115709190612b48565b95508060600151856115829190612b48565b945050808061159090612e37565b9150506111ef565b508084849750975097505050505050909192565b60007f01ffc9a7000000000000000000000000000000000000000000000000000000007bffffffffffffffffffffffffffffffffffffffffffffffffffffffff1916827bffffffffffffffffffffffffffffffffffffffffffffffffffffffff1916149050919050565b6116278161162261170a565b611e53565b50565b611634828261091f565b61170657600180600084815260200190815260200160002060000160008373ffffffffffffffffffffffffffffffffffffffff1673ffffffffffffffffffffffffffffffffffffffff16815260200190815260200160002060006101000a81548160ff0219169083151502179055506116ab61170a565b73ffffffffffffffffffffffffffffffffffffffff168173ffffffffffffffffffffffffffffffffffffffff16837f2f8788117e7eff1d82e926ec794901d17c78024a50270940304540a733656f0d60405160405180910390a45b5050565b600033905090565b61171c828261091f565b156117f05760006001600084815260200190815260200160002060000160008373ffffffffffffffffffffffffffffffffffffffff1673ffffffffffffffffffffffffffffffffffffffff16815260200190815260200160002060006101000a81548160ff02191690831515021790555061179561170a565b73ffffffffffffffffffffffffffffffffffffffff168173ffffffffffffffffffffffffffffffffffffffff16837ff6391f5c32d9c69d2a47ea670b442974b53935d1edc7fd64eb21e047a839171b60405160405180910390a45b5050565b600260005403611839576040517f08c379a000000000000000000000000000000000000000000000000000000000815260040161183090612eac565b60405180910390fd5b6002600081905550565b600081600001549050919050565b6000600560003373ffffffffffffffffffffffffffffffffffffffff1673ffffffffffffffffffffffffffffffffffffffff1681526020019081526020016000206040518060800160405290816000820180546118ad906127ec565b80601f01602080910402602001604051908101604052809291908181526020018280546118d9906127ec565b80156119265780601f106118fb57610100808354040283529160200191611926565b820191906000526020600020905b81548152906001019060200180831161190957829003601f168201915b505050505081526020016001820160009054906101000a900460ff1615151515815260200160028201548152602001600382015481525050905060005b848490508160ff161015611e2c5760006004600087878560ff1681811061198d5761198c612c4a565b5b90506020020160208101906119a29190612533565b73ffffffffffffffffffffffffffffffffffffffff1673ffffffffffffffffffffffffffffffffffffffff16815260200190815260200160002060003373ffffffffffffffffffffffffffffffffffffffff1673ffffffffffffffffffffffffffffffffffffffff168152602001908152602001600020905060006005600088888660ff16818110611a3757611a36612c4a565b5b9050602002016020810190611a4c9190612533565b73ffffffffffffffffffffffffffffffffffffffff1673ffffffffffffffffffffffffffffffffffffffff168152602001908152602001600020604051806080016040529081600082018054611aa1906127ec565b80601f0160208091040260200160405190810160405280929190818152602001828054611acd906127ec565b8015611b1a5780601f10611aef57610100808354040283529160200191611b1a565b820191906000526020600020905b815481529060010190602001808311611afd57829003601f168201915b505050505081526020016001820160009054906101000a900460ff161515151581526020016002820154815260200160038201548152505090506000600460003373ffffffffffffffffffffffffffffffffffffffff1673ffffffffffffffffffffffffffffffffffffffff168152602001908152602001600020600089898760ff16818110611bad57611bac612c4a565b5b9050602002016020810190611bc29190612533565b73ffffffffffffffffffffffffffffffffffffffff1673ffffffffffffffffffffffffffffffffffffffff16815260200190815260200160002090508460000151816000019081611c139190612ecc565b508160000151836000019081611c299190612ecc565b5081602001518360010160006101000a81548160ff0219169083151502179055506000836002015490506000811115611d005780871115611cc457600084600201819055506000826003018190555060008188611c869190612df6565b905080856003016000828254611c9c9190612b48565b9250508190555080836002016000828254611cb79190612b48565b9250508190555050611cfb565b86846002016000828254611cd89190612df6565b9250508190555086826003016000828254611cf39190612df6565b925050819055505b611d37565b86846003016000828254611d149190612b48565b9250508190555086826002016000828254611d2f9190612b48565b925050819055505b611da6336040518060400160405280600481526020017f6c656e64000000000000000000000000000000000000000000000000000000008152508b8b8960ff16818110611d8757611d86612c4a565b5b9050602002016020810190611d9c9190612533565b8560020154611eab565b611e15336040518060400160405280600781526020017f626f72726f7720000000000000000000000000000000000000000000000000008152508b8b8960ff16818110611df657611df5612c4a565b5b9050602002016020810190611e0b9190612533565b8560030154611eab565b505050508080611e2490612e37565b915050611963565b5050505050565b6001816000016000828254019250508190555050565b6001600081905550565b611e5d828261091f565b80611e715750611e706000801b8261091f565b5b611ea7576040517f58e11a6e00000000000000000000000000000000000000000000000000000000815260040160405180910390fd5b5050565b611f4784848484604051602401611ec59493929190612f9e565b6040516020818303038152906040527f457fe3cf000000000000000000000000000000000000000000000000000000007bffffffffffffffffffffffffffffffffffffffffffffffffffffffff19166020820180517bffffffffffffffffffffffffffffffffffffffffffffffffffffffff8381831617835250505050611f4d565b50505050565b60006a636f6e736f6c652e6c6f679050600080835160208501845afa505050565b60405180608001604052806060815260200160001515815260200160008152602001600081525090565b600080fd5b600080fd5b60007fffffffff0000000000000000000000000000000000000000000000000000000082169050919050565b611fd781611fa2565b8114611fe257600080fd5b50565b600081359050611ff481611fce565b92915050565b6000602082840312156120105761200f611f98565b5b600061201e84828501611fe5565b91505092915050565b60008115159050919050565b61203c81612027565b82525050565b60006020820190506120576000830184612033565b92915050565b6000819050919050565b6120708161205d565b811461207b57600080fd5b50565b60008135905061208d81612067565b92915050565b6000602082840312156120a9576120a8611f98565b5b60006120b78482850161207e565b91505092915050565b6120c98161205d565b82525050565b60006020820190506120e460008301846120c0565b92915050565b600073ffffffffffffffffffffffffffffffffffffffff82169050919050565b6000612115826120ea565b9050919050565b6121258161210a565b811461213057600080fd5b50565b6000813590506121428161211c565b92915050565b6000806040838503121561215f5761215e611f98565b5b600061216d8582860161207e565b925050602061217e85828601612133565b9150509250929050565b600080fd5b600080fd5b600080fd5b60008083601f8401126121ad576121ac612188565b5b8235905067ffffffffffffffff8111156121ca576121c961218d565b5b6020830191508360018202830111156121e6576121e5612192565b5b9250929050565b6000819050919050565b612200816121ed565b811461220b57600080fd5b50565b60008135905061221d816121f7565b92915050565b60008083601f84011261223957612238612188565b5b8235905067ffffffffffffffff8111156122565761225561218d565b5b60208301915083602082028301111561227257612271612192565b5b9250929050565b6000806000806000806080878903121561229657612295611f98565b5b600087013567ffffffffffffffff8111156122b4576122b3611f9d565b5b6122c089828a01612197565b965096505060206122d389828a0161220e565b945050604087013567ffffffffffffffff8111156122f4576122f3611f9d565b5b61230089828a01612223565b9350935050606061231389828a01612133565b9150509295509295509295565b6000806040838503121561233757612336611f98565b5b600061234585828601612133565b925050602061235685828601612133565b9150509250929050565b600081519050919050565b600082825260208201905092915050565b60005b8381101561239a57808201518184015260208101905061237f565b60008484015250505050565b6000601f19601f8301169050919050565b60006123c282612360565b6123cc818561236b565b93506123dc81856020860161237c565b6123e5816123a6565b840191505092915050565b6123f9816121ed565b82525050565b6000608082019050818103600083015261241981876123b7565b90506124286020830186612033565b61243560408301856123f0565b61244260608301846123f0565b95945050505050565b60006020828403121561246157612460611f98565b5b600061246f8482850161220e565b91505092915050565b6124818161210a565b82525050565b600060808201905081810360008301526124a181876123b7565b90506124b060208301866123f0565b6124bd6040830185612478565b6124ca6060830184612478565b95945050505050565b6000806000604084860312156124ec576124eb611f98565b5b60006124fa86828701612133565b935050602084013567ffffffffffffffff81111561251b5761251a611f9d565b5b61252786828701612197565b92509250509250925092565b60006020828403121561254957612548611f98565b5b600061255784828501612133565b91505092915050565b600081519050919050565b600082825260208201905092915050565b6000819050602082019050919050565b600082825260208201905092915050565b60006125a882612360565b6125b2818561258c565b93506125c281856020860161237c565b6125cb816123a6565b840191505092915050565b6125df81612027565b82525050565b6125ee816121ed565b82525050565b60006080830160008301518482036000860152612611828261259d565b915050602083015161262660208601826125d6565b50604083015161263960408601826125e5565b50606083015161264c60608601826125e5565b508091505092915050565b600061266383836125f4565b905092915050565b6000602082019050919050565b600061268382612560565b61268d818561256b565b93508360208202850161269f8561257c565b8060005b858110156126db57848403895281516126bc8582612657565b94506126c78361266b565b925060208a019950506001810190506126a3565b50829750879550505050505092915050565b600060608201905081810360008301526127078186612678565b905061271660208301856123f0565b61272360408301846123f0565b949350505050565b7f416363657373436f6e74726f6c3a2063616e206f6e6c792072656e6f756e636560008201527f20726f6c657320666f722073656c660000000000000000000000000000000000602082015250565b6000612787602f8361236b565b91506127928261272b565b604082019050919050565b600060208201905081810360008301526127b68161277a565b9050919050565b7f4e487b7100000000000000000000000000000000000000000000000000000000600052602260045260246000fd5b6000600282049050600182168061280457607f821691505b602082108103612817576128166127bd565b5b50919050565b600082905092915050565b7f4e487b7100000000000000000000000000000000000000000000000000000000600052604160045260246000fd5b60008190508160005260206000209050919050565b60006020601f8301049050919050565b600082821b905092915050565b6000600883026128b97fffffffffffffffffffffffffffffffffffffffffffffffffffffffffffffffff8261287c565b6128c3868361287c565b95508019841693508086168417925050509392505050565b6000819050919050565b60006129006128fb6128f6846121ed565b6128db565b6121ed565b9050919050565b6000819050919050565b61291a836128e5565b61292e61292682612907565b848454612889565b825550505050565b600090565b612943612936565b61294e818484612911565b505050565b5b818110156129725761296760008261293b565b600181019050612954565b5050565b601f8211156129b75761298881612857565b6129918461286c565b810160208510156129a0578190505b6129b46129ac8561286c565b830182612953565b50505b505050565b600082821c905092915050565b60006129da600019846008026129bc565b1980831691505092915050565b60006129f383836129c9565b9150826002028217905092915050565b612a0d838361281d565b67ffffffffffffffff811115612a2657612a25612828565b5b612a3082546127ec565b612a3b828285612976565b6000601f831160018114612a6a5760008415612a58578287013590505b612a6285826129e7565b865550612aca565b601f198416612a7886612857565b60005b82811015612aa057848901358255600182019150602085019450602081019050612a7b565b86831015612abd5784890135612ab9601f8916826129c9565b8355505b6001600288020188555050505b50505050505050565b600081905092915050565b50565b6000612aee600083612ad3565b9150612af982612ade565b600082019050919050565b6000612b0f82612ae1565b9150819050919050565b7f4e487b7100000000000000000000000000000000000000000000000000000000600052601160045260246000fd5b6000612b53826121ed565b9150612b5e836121ed565b9250828201905080821115612b7657612b75612b19565b5b92915050565b7f4e487b7100000000000000000000000000000000000000000000000000000000600052601260045260246000fd5b6000612bb6826121ed565b9150612bc1836121ed565b925082612bd157612bd0612b7c565b5b828204905092915050565b82818337600083830152505050565b6000612bf7838561236b565b9350612c04838584612bdc565b612c0d836123a6565b840190509392505050565b6000604082019050612c2d6000830186612478565b8181036020830152612c40818486612beb565b9050949350505050565b7f4e487b7100000000000000000000000000000000000000000000000000000000600052603260045260246000fd5b6000612c84826121ed565b91507fffffffffffffffffffffffffffffffffffffffffffffffffffffffffffffffff8203612cb657612cb5612b19565b5b600182019050919050565b600081549050919050565b600081905092915050565b60008190508160005260206000209050919050565b612cf58161210a565b82525050565b6000612d078383612cec565b60208301905092915050565b60008160001c9050919050565b600073ffffffffffffffffffffffffffffffffffffffff82169050919050565b6000612d53612d4e83612d13565b612d20565b9050919050565b6000612d668254612d40565b9050919050565b6000600182019050919050565b6000612d8582612cc1565b612d8f8185612ccc565b9350612d9a83612cd7565b8060005b83811015612dd257612daf82612d5a565b612db98882612cfb565b9750612dc483612d6d565b925050600181019050612d9e565b5085935050505092915050565b6000612deb8284612d7a565b915081905092915050565b6000612e01826121ed565b9150612e0c836121ed565b9250828203905081811115612e2457612e23612b19565b5b92915050565b600060ff82169050919050565b6000612e4282612e2a565b915060ff8203612e5557612e54612b19565b5b600182019050919050565b7f5265656e7472616e637947756172643a207265656e7472616e742063616c6c00600082015250565b6000612e96601f8361236b565b9150612ea182612e60565b602082019050919050565b60006020820190508181036000830152612ec581612e89565b9050919050565b612ed582612360565b67ffffffffffffffff811115612eee57612eed612828565b5b612ef882546127ec565b612f03828285612976565b600060209050601f831160018114612f365760008415612f24578287015190505b612f2e85826129e7565b865550612f96565b601f198416612f4486612857565b60005b82811015612f6c57848901518255600182019150602085019450602081019050612f47565b86831015612f895784890151612f85601f8916826129c9565b8355505b6001600288020188555050505b505050505050565b6000608082019050612fb36000830187612478565b8181036020830152612fc581866123b7565b9050612fd46040830185612478565b612fe160608301846123f0565b9594505050505056fea264697066735822122018079811ad39e938daea069282194a8fcf8622f81b125e408f5446261d9194bf64736f6c63430008130033",
  "linkReferences": {},
  "deployedLinkReferences": {}
}