{
  "_format": "hh-sol-artifact-1",
  "contractName": "SplitWise",
  "sourceName": "contracts/SplitWise.sol",
  "abi": [
    {
      "inputs": [],
      "stateMutability": "nonpayable",
      "type": "constructor"
    },
    {
      "inputs": [],
      "name": "InsufficientFunds",
      "type": "error"
    },
    {
      "inputs": [],
      "name": "InvalidAddress",
      "type": "error"
    },
    {
      "inputs": [],
      "name": "TranasctionFailed",
      "type": "error"
    },
    {
      "inputs": [],
      "name": "UnAuthorise",
      "type": "error"
    },
    {
      "anonymous": false,
      "inputs": [
        {
          "indexed": true,
          "internalType": "uint256",
          "name": "id",
          "type": "uint256"
        },
        {
          "indexed": true,
          "internalType": "uint256",
          "name": "amount",
          "type": "uint256"
        },
        {
          "indexed": true,
          "internalType": "address",
          "name": "payer",
          "type": "address"
        },
        {
          "indexed": false,
          "internalType": "address",
          "name": "vendor",
          "type": "address"
        },
        {
          "indexed": false,
          "internalType": "string",
          "name": "purpose",
          "type": "string"
        }
      ],
      "name": "AddExpenses",
      "type": "event"
    },
    {
      "anonymous": false,
      "inputs": [
        {
          "indexed": true,
          "internalType": "address",
          "name": "from",
          "type": "address"
        },
        {
          "indexed": true,
          "internalType": "uint256",
          "name": "amount",
          "type": "uint256"
        },
        {
          "indexed": true,
          "internalType": "address[]",
          "name": "user",
          "type": "address[]"
        }
      ],
      "name": "MakePayment",
      "type": "event"
    },
    {
      "anonymous": false,
      "inputs": [
        {
          "indexed": true,
          "internalType": "bytes32",
          "name": "role",
          "type": "bytes32"
        },
        {
          "indexed": true,
          "internalType": "bytes32",
          "name": "previousAdminRole",
          "type": "bytes32"
        },
        {
          "indexed": true,
          "internalType": "bytes32",
          "name": "newAdminRole",
          "type": "bytes32"
        }
      ],
      "name": "RoleAdminChanged",
      "type": "event"
    },
    {
      "anonymous": false,
      "inputs": [
        {
          "indexed": true,
          "internalType": "bytes32",
          "name": "role",
          "type": "bytes32"
        },
        {
          "indexed": true,
          "internalType": "address",
          "name": "account",
          "type": "address"
        },
        {
          "indexed": true,
          "internalType": "address",
          "name": "sender",
          "type": "address"
        }
      ],
      "name": "RoleGranted",
      "type": "event"
    },
    {
      "anonymous": false,
      "inputs": [
        {
          "indexed": true,
          "internalType": "bytes32",
          "name": "role",
          "type": "bytes32"
        },
        {
          "indexed": true,
          "internalType": "address",
          "name": "account",
          "type": "address"
        },
        {
          "indexed": true,
          "internalType": "address",
          "name": "sender",
          "type": "address"
        }
      ],
      "name": "RoleRevoked",
      "type": "event"
    },
    {
      "inputs": [],
      "name": "DEFAULT_ADMIN_ROLE",
      "outputs": [
        {
          "internalType": "bytes32",
          "name": "",
          "type": "bytes32"
        }
      ],
      "stateMutability": "view",
      "type": "function"
    },
    {
      "inputs": [
        {
          "internalType": "address",
          "name": "user",
          "type": "address"
        },
        {
          "internalType": "string",
          "name": "_name",
          "type": "string"
        }
      ],
      "name": "addContributors",
      "outputs": [],
      "stateMutability": "nonpayable",
      "type": "function"
    },
    {
      "inputs": [
        {
          "internalType": "string",
          "name": "_purpose",
          "type": "string"
        },
        {
          "internalType": "uint256",
          "name": "_amount",
          "type": "uint256"
        },
        {
          "internalType": "address[]",
          "name": "_contributor",
          "type": "address[]"
        },
        {
          "internalType": "address",
          "name": "_vendor",
          "type": "address"
        }
      ],
      "name": "addExpenses",
      "outputs": [],
      "stateMutability": "payable",
      "type": "function"
    },
    {
      "inputs": [
        {
          "internalType": "address",
          "name": "user",
          "type": "address"
        }
      ],
      "name": "addWhiteList",
      "outputs": [
        {
          "internalType": "string",
          "name": "name",
          "type": "string"
        },
        {
          "internalType": "bool",
          "name": "isVerified",
          "type": "bool"
        },
        {
          "internalType": "uint256",
          "name": "lend",
          "type": "uint256"
        },
        {
          "internalType": "uint256",
          "name": "borrow",
          "type": "uint256"
        }
      ],
      "stateMutability": "view",
      "type": "function"
    },
    {
      "inputs": [
        {
          "internalType": "address",
          "name": "payer",
          "type": "address"
        },
        {
          "internalType": "address",
          "name": "user",
          "type": "address"
        }
      ],
      "name": "contributors",
      "outputs": [
        {
          "internalType": "string",
          "name": "name",
          "type": "string"
        },
        {
          "internalType": "bool",
          "name": "isVerified",
          "type": "bool"
        },
        {
          "internalType": "uint256",
          "name": "lend",
          "type": "uint256"
        },
        {
          "internalType": "uint256",
          "name": "borrow",
          "type": "uint256"
        }
      ],
      "stateMutability": "view",
      "type": "function"
    },
    {
      "inputs": [
        {
          "internalType": "uint256",
          "name": "id",
          "type": "uint256"
        }
      ],
      "name": "expenses",
      "outputs": [
        {
          "internalType": "string",
          "name": "purpose",
          "type": "string"
        },
        {
          "internalType": "uint256",
          "name": "amount",
          "type": "uint256"
        },
        {
          "internalType": "address",
          "name": "vendor",
          "type": "address"
        },
        {
          "internalType": "address",
          "name": "payer",
          "type": "address"
        }
      ],
      "stateMutability": "view",
      "type": "function"
    },
    {
      "inputs": [],
      "name": "getDetails",
      "outputs": [
        {
          "internalType": "uint256",
          "name": "_lend",
          "type": "uint256"
        },
        {
          "internalType": "uint256",
          "name": "_borrow",
          "type": "uint256"
        }
      ],
      "stateMutability": "view",
      "type": "function"
    },
    {
      "inputs": [
        {
          "internalType": "bytes32",
          "name": "role",
          "type": "bytes32"
        }
      ],
      "name": "getRoleAdmin",
      "outputs": [
        {
          "internalType": "bytes32",
          "name": "",
          "type": "bytes32"
        }
      ],
      "stateMutability": "view",
      "type": "function"
    },
    {
      "inputs": [
        {
          "internalType": "bytes32",
          "name": "role",
          "type": "bytes32"
        },
        {
          "internalType": "address",
          "name": "account",
          "type": "address"
        }
      ],
      "name": "grantRole",
      "outputs": [],
      "stateMutability": "nonpayable",
      "type": "function"
    },
    {
      "inputs": [
        {
          "internalType": "bytes32",
          "name": "role",
          "type": "bytes32"
        },
        {
          "internalType": "address",
          "name": "account",
          "type": "address"
        }
      ],
      "name": "hasRole",
      "outputs": [
        {
          "internalType": "bool",
          "name": "",
          "type": "bool"
        }
      ],
      "stateMutability": "view",
      "type": "function"
    },
    {
      "inputs": [],
      "name": "makePayment",
      "outputs": [],
      "stateMutability": "payable",
      "type": "function"
    },
    {
      "inputs": [
        {
          "internalType": "bytes32",
          "name": "role",
          "type": "bytes32"
        },
        {
          "internalType": "address",
          "name": "account",
          "type": "address"
        }
      ],
      "name": "renounceRole",
      "outputs": [],
      "stateMutability": "nonpayable",
      "type": "function"
    },
    {
      "inputs": [
        {
          "internalType": "bytes32",
          "name": "role",
          "type": "bytes32"
        },
        {
          "internalType": "address",
          "name": "account",
          "type": "address"
        }
      ],
      "name": "revokeRole",
      "outputs": [],
      "stateMutability": "nonpayable",
      "type": "function"
    },
    {
      "inputs": [
        {
          "internalType": "bytes4",
          "name": "interfaceId",
          "type": "bytes4"
        }
      ],
      "name": "supportsInterface",
      "outputs": [
        {
          "internalType": "bool",
          "name": "",
          "type": "bool"
        }
      ],
      "stateMutability": "view",
      "type": "function"
    }
  ],
  "bytecode": "0x60806040523480156200001157600080fd5b5060016000819055506200002f6000801b336200004d60201b60201c565b620000476000801b6000801b6200006360201b60201c565b6200024b565b6200005f8282620000c760201b60201c565b5050565b60006200007683620001b860201b60201c565b90508160016000858152602001908152602001600020600101819055508181847fbd79b86ffe0ab8e8776151514217cd7cacd52c909f66475c3af44e129f0b00ff60405160405180910390a4505050565b620000d98282620001d860201b60201c565b620001b457600180600084815260200190815260200160002060000160008373ffffffffffffffffffffffffffffffffffffffff1673ffffffffffffffffffffffffffffffffffffffff16815260200190815260200160002060006101000a81548160ff021916908315150217905550620001596200024360201b60201c565b73ffffffffffffffffffffffffffffffffffffffff168173ffffffffffffffffffffffffffffffffffffffff16837f2f8788117e7eff1d82e926ec794901d17c78024a50270940304540a733656f0d60405160405180910390a45b5050565b600060016000838152602001908152602001600020600101549050919050565b60006001600084815260200190815260200160002060000160008373ffffffffffffffffffffffffffffffffffffffff1673ffffffffffffffffffffffffffffffffffffffff16815260200190815260200160002060009054906101000a900460ff16905092915050565b600033905090565b612853806200025b6000396000f3fe6080604052600436106100dd5760003560e01c8063a217fddf1161007f578063d8d7970011610059578063d8d79700146102db578063e73bed30146102e5578063e7cd4a041461030e578063fbbf93a01461034e576100dd565b8063a217fddf14610247578063af4afe0a14610272578063d547741f146102b2576100dd565b806336568abe116100bb57806336568abe14610185578063830277dc146101ae5780638c7ae442146101ca57806391d148541461020a576100dd565b806301ffc9a7146100e2578063248a9ca31461011f5780632f2ff15d1461015c575b600080fd5b3480156100ee57600080fd5b5061010960048036038101906101049190611aa1565b61037a565b6040516101169190611ae9565b60405180910390f35b34801561012b57600080fd5b5061014660048036038101906101419190611b3a565b6103f4565b6040516101539190611b76565b60405180910390f35b34801561016857600080fd5b50610183600480360381019061017e9190611bef565b610414565b005b34801561019157600080fd5b506101ac60048036038101906101a79190611bef565b610435565b005b6101c860048036038101906101c39190611d20565b6104b8565b005b3480156101d657600080fd5b506101f160048036038101906101ec9190611dc7565b610812565b6040516102019493929190611ea6565b60405180910390f35b34801561021657600080fd5b50610231600480360381019061022c9190611bef565b6108e4565b60405161023e9190611ae9565b60405180910390f35b34801561025357600080fd5b5061025c61094f565b6040516102699190611b76565b60405180910390f35b34801561027e57600080fd5b5061029960048036038101906102949190611ef2565b610956565b6040516102a99493929190611f2e565b60405180910390f35b3480156102be57600080fd5b506102d960048036038101906102d49190611bef565b610a4e565b005b6102e3610a6f565b005b3480156102f157600080fd5b5061030c60048036038101906103079190611f7a565b610f1b565b005b34801561031a57600080fd5b5061033560048036038101906103309190611fda565b61106e565b6040516103459493929190611ea6565b60405180910390f35b34801561035a57600080fd5b50610363611133565b604051610371929190612007565b60405180910390f35b60007f7965db0b000000000000000000000000000000000000000000000000000000007bffffffffffffffffffffffffffffffffffffffffffffffffffffffff1916827bffffffffffffffffffffffffffffffffffffffffffffffffffffffff191614806103ed57506103ec82611313565b5b9050919050565b600060016000838152602001908152602001600020600101549050919050565b61041d826103f4565b6104268161137d565b6104308383611391565b505050565b61043d611471565b73ffffffffffffffffffffffffffffffffffffffff168173ffffffffffffffffffffffffffffffffffffffff16146104aa576040517f08c379a00000000000000000000000000000000000000000000000000000000081526004016104a1906120a2565b60405180910390fd5b6104b48282611479565b5050565b6104c061155b565b6000600560003373ffffffffffffffffffffffffffffffffffffffff1673ffffffffffffffffffffffffffffffffffffffff16815260200190815260200160002060405180608001604052908160008201805461051c906120f1565b80601f0160208091040260200160405190810160405280929190818152602001828054610548906120f1565b80156105955780601f1061056a57610100808354040283529160200191610595565b820191906000526020600020905b81548152906001019060200180831161057857829003601f168201915b505050505081526020016001820160009054906101000a900460ff16151515158152602001600282015481526020016003820154815250509050806020015161060a576040517f58e11a6e00000000000000000000000000000000000000000000000000000000815260040160405180910390fd5b600061061660026115aa565b905060006003600083815260200190815260200160002090508888826000019182610642929190612308565b50868160010181905550838160020160006101000a81548173ffffffffffffffffffffffffffffffffffffffff021916908373ffffffffffffffffffffffffffffffffffffffff16021790555060008473ffffffffffffffffffffffffffffffffffffffff16346040516106b590612409565b60006040518083038185875af1925050503d80600081146106f2576040519150601f19603f3d011682016040523d82523d6000602084013e6106f7565b606091505b5050905080610732576040517f356680b700000000000000000000000000000000000000000000000000000000815260040160405180910390fd5b338260030160006101000a81548173ffffffffffffffffffffffffffffffffffffffff021916908373ffffffffffffffffffffffffffffffffffffffff1602179055506000600188889050610787919061244d565b8961079291906124b0565b905061079f8888836115b8565b6107a96002611904565b3373ffffffffffffffffffffffffffffffffffffffff1689857fb39c4a97d50b9abec360d305b30787baa95b952cc40ec1aff0153cdf881ff26b898f8f6040516107f59392919061251d565b60405180910390a4505050505061080a61191a565b505050505050565b600460205281600052604060002060205280600052604060002060009150915050806000018054610842906120f1565b80601f016020809104026020016040519081016040528092919081815260200182805461086e906120f1565b80156108bb5780601f10610890576101008083540402835291602001916108bb565b820191906000526020600020905b81548152906001019060200180831161089e57829003601f168201915b5050505050908060010160009054906101000a900460ff16908060020154908060030154905084565b60006001600084815260200190815260200160002060000160008373ffffffffffffffffffffffffffffffffffffffff1673ffffffffffffffffffffffffffffffffffffffff16815260200190815260200160002060009054906101000a900460ff16905092915050565b6000801b81565b6003602052806000526040600020600091509050806000018054610979906120f1565b80601f01602080910402602001604051908101604052809291908181526020018280546109a5906120f1565b80156109f25780601f106109c7576101008083540402835291602001916109f2565b820191906000526020600020905b8154815290600101906020018083116109d557829003601f168201915b5050505050908060010154908060020160009054906101000a900473ffffffffffffffffffffffffffffffffffffffff16908060030160009054906101000a900473ffffffffffffffffffffffffffffffffffffffff16905084565b610a57826103f4565b610a608161137d565b610a6a8383611479565b505050565b610a7761155b565b6000600560003373ffffffffffffffffffffffffffffffffffffffff1673ffffffffffffffffffffffffffffffffffffffff168152602001908152602001600020604051806080016040529081600082018054610ad3906120f1565b80601f0160208091040260200160405190810160405280929190818152602001828054610aff906120f1565b8015610b4c5780601f10610b2157610100808354040283529160200191610b4c565b820191906000526020600020905b815481529060010190602001808311610b2f57829003601f168201915b505050505081526020016001820160009054906101000a900460ff161515151581526020016002820154815260200160038201548152505090508060200151610bc1576040517f58e11a6e00000000000000000000000000000000000000000000000000000000815260040160405180910390fd5b6000610bcb611133565b91505080341015610c08576040517f356680b700000000000000000000000000000000000000000000000000000000815260040160405180910390fd5b60005b600680549050811015610eb3576000600460003373ffffffffffffffffffffffffffffffffffffffff1673ffffffffffffffffffffffffffffffffffffffff168152602001908152602001600020600060068481548110610c6f57610c6e61254f565b5b9060005260206000200160009054906101000a900473ffffffffffffffffffffffffffffffffffffffff1673ffffffffffffffffffffffffffffffffffffffff1673ffffffffffffffffffffffffffffffffffffffff168152602001908152602001600020905060006004600060068581548110610cf057610cef61254f565b5b9060005260206000200160009054906101000a900473ffffffffffffffffffffffffffffffffffffffff1673ffffffffffffffffffffffffffffffffffffffff1673ffffffffffffffffffffffffffffffffffffffff16815260200190815260200160002060003373ffffffffffffffffffffffffffffffffffffffff1673ffffffffffffffffffffffffffffffffffffffff16815260200190815260200160002090506000826003015490506000811115610e9d57600060068581548110610dbc57610dbb61254f565b5b9060005260206000200160009054906101000a900473ffffffffffffffffffffffffffffffffffffffff1673ffffffffffffffffffffffffffffffffffffffff1682604051610e0a90612409565b60006040518083038185875af1925050503d8060008114610e47576040519150601f19603f3d011682016040523d82523d6000602084013e610e4c565b606091505b5050905080610e87576040517f6d08c74700000000000000000000000000000000000000000000000000000000815260040160405180910390fd5b6000846003018190555060008360020181905550505b5050508080610eab9061257e565b915050610c0b565b506006604051610ec391906126e4565b6040518091039020343373ffffffffffffffffffffffffffffffffffffffff167fc98180b4631ed3929291375e30c33ecc3e7526676e488436245369d5c326807360405160405180910390a45050610f1961191a565b565b6000801b610f288161137d565b83600073ffffffffffffffffffffffffffffffffffffffff168173ffffffffffffffffffffffffffffffffffffffff1603610f8f576040517fe6c4247b00000000000000000000000000000000000000000000000000000000815260040160405180910390fd5b6000600560008773ffffffffffffffffffffffffffffffffffffffff1673ffffffffffffffffffffffffffffffffffffffff16815260200190815260200160002090508484826000019182610fe5929190612308565b5060018160010160006101000a81548160ff0219169083151502179055506006869080600181540180825580915050600190039060005260206000200160009091909190916101000a81548173ffffffffffffffffffffffffffffffffffffffff021916908373ffffffffffffffffffffffffffffffffffffffff160217905550505050505050565b6005602052806000526040600020600091509050806000018054611091906120f1565b80601f01602080910402602001604051908101604052809291908181526020018280546110bd906120f1565b801561110a5780601f106110df5761010080835404028352916020019161110a565b820191906000526020600020905b8154815290600101906020018083116110ed57829003601f168201915b5050505050908060010160009054906101000a900460ff16908060020154908060030154905084565b60008060005b6006805490508160ff16101561130e576000600460003373ffffffffffffffffffffffffffffffffffffffff1673ffffffffffffffffffffffffffffffffffffffff168152602001908152602001600020600060068460ff16815481106111a3576111a261254f565b5b9060005260206000200160009054906101000a900473ffffffffffffffffffffffffffffffffffffffff1673ffffffffffffffffffffffffffffffffffffffff1673ffffffffffffffffffffffffffffffffffffffff168152602001908152602001600020604051806080016040529081600082018054611223906120f1565b80601f016020809104026020016040519081016040528092919081815260200182805461124f906120f1565b801561129c5780601f106112715761010080835404028352916020019161129c565b820191906000526020600020905b81548152906001019060200180831161127f57829003601f168201915b505050505081526020016001820160009054906101000a900460ff161515151581526020016002820154815260200160038201548152505090508060400151846112e6919061244d565b93508060600151836112f8919061244d565b925050808061130690612708565b915050611139565b509091565b60007f01ffc9a7000000000000000000000000000000000000000000000000000000007bffffffffffffffffffffffffffffffffffffffffffffffffffffffff1916827bffffffffffffffffffffffffffffffffffffffffffffffffffffffff1916149050919050565b61138e81611389611471565b611924565b50565b61139b82826108e4565b61146d57600180600084815260200190815260200160002060000160008373ffffffffffffffffffffffffffffffffffffffff1673ffffffffffffffffffffffffffffffffffffffff16815260200190815260200160002060006101000a81548160ff021916908315150217905550611412611471565b73ffffffffffffffffffffffffffffffffffffffff168173ffffffffffffffffffffffffffffffffffffffff16837f2f8788117e7eff1d82e926ec794901d17c78024a50270940304540a733656f0d60405160405180910390a45b5050565b600033905090565b61148382826108e4565b156115575760006001600084815260200190815260200160002060000160008373ffffffffffffffffffffffffffffffffffffffff1673ffffffffffffffffffffffffffffffffffffffff16815260200190815260200160002060006101000a81548160ff0219169083151502179055506114fc611471565b73ffffffffffffffffffffffffffffffffffffffff168173ffffffffffffffffffffffffffffffffffffffff16837ff6391f5c32d9c69d2a47ea670b442974b53935d1edc7fd64eb21e047a839171b60405160405180910390a45b5050565b6002600054036115a0576040517f08c379a00000000000000000000000000000000000000000000000000000000081526004016115979061277d565b60405180910390fd5b6002600081905550565b600081600001549050919050565b60005b838390508160ff1610156118fe5760006004600086868560ff168181106115e5576115e461254f565b5b90506020020160208101906115fa9190611fda565b73ffffffffffffffffffffffffffffffffffffffff1673ffffffffffffffffffffffffffffffffffffffff16815260200190815260200160002060003373ffffffffffffffffffffffffffffffffffffffff1673ffffffffffffffffffffffffffffffffffffffff16815260200190815260200160002090506000600460003373ffffffffffffffffffffffffffffffffffffffff1673ffffffffffffffffffffffffffffffffffffffff168152602001908152602001600020600087878660ff168181106116cc576116cb61254f565b5b90506020020160208101906116e19190611fda565b73ffffffffffffffffffffffffffffffffffffffff1673ffffffffffffffffffffffffffffffffffffffff168152602001908152602001600020905060008260020154905060008111156117d3578085111561179757600083600201819055506000826003018190555060008186611759919061279d565b90508084600301600082825461176f919061244d565b925050819055508083600201600082825461178a919061244d565b92505081905550506117ce565b848360020160008282546117ab919061279d565b92505081905550848260030160008282546117c6919061279d565b925050819055505b61180a565b848360030160008282546117e7919061244d565b9250508190555084826002016000828254611802919061244d565b925050819055505b611879336040518060400160405280600481526020017f6c656e640000000000000000000000000000000000000000000000000000000081525089898860ff1681811061185a5761185961254f565b5b905060200201602081019061186f9190611fda565b856002015461197c565b6118e8336040518060400160405280600781526020017f626f72726f77200000000000000000000000000000000000000000000000000081525089898860ff168181106118c9576118c861254f565b5b90506020020160208101906118de9190611fda565b856003015461197c565b50505080806118f690612708565b9150506115bb565b50505050565b6001816000016000828254019250508190555050565b6001600081905550565b61192e82826108e4565b8061194257506119416000801b826108e4565b5b611978576040517f58e11a6e00000000000000000000000000000000000000000000000000000000815260040160405180910390fd5b5050565b611a188484848460405160240161199694939291906127d1565b6040516020818303038152906040527f457fe3cf000000000000000000000000000000000000000000000000000000007bffffffffffffffffffffffffffffffffffffffffffffffffffffffff19166020820180517bffffffffffffffffffffffffffffffffffffffffffffffffffffffff8381831617835250505050611a1e565b50505050565b60006a636f6e736f6c652e6c6f679050600080835160208501845afa505050565b600080fd5b600080fd5b60007fffffffff0000000000000000000000000000000000000000000000000000000082169050919050565b611a7e81611a49565b8114611a8957600080fd5b50565b600081359050611a9b81611a75565b92915050565b600060208284031215611ab757611ab6611a3f565b5b6000611ac584828501611a8c565b91505092915050565b60008115159050919050565b611ae381611ace565b82525050565b6000602082019050611afe6000830184611ada565b92915050565b6000819050919050565b611b1781611b04565b8114611b2257600080fd5b50565b600081359050611b3481611b0e565b92915050565b600060208284031215611b5057611b4f611a3f565b5b6000611b5e84828501611b25565b91505092915050565b611b7081611b04565b82525050565b6000602082019050611b8b6000830184611b67565b92915050565b600073ffffffffffffffffffffffffffffffffffffffff82169050919050565b6000611bbc82611b91565b9050919050565b611bcc81611bb1565b8114611bd757600080fd5b50565b600081359050611be981611bc3565b92915050565b60008060408385031215611c0657611c05611a3f565b5b6000611c1485828601611b25565b9250506020611c2585828601611bda565b9150509250929050565b600080fd5b600080fd5b600080fd5b60008083601f840112611c5457611c53611c2f565b5b8235905067ffffffffffffffff811115611c7157611c70611c34565b5b602083019150836001820283011115611c8d57611c8c611c39565b5b9250929050565b6000819050919050565b611ca781611c94565b8114611cb257600080fd5b50565b600081359050611cc481611c9e565b92915050565b60008083601f840112611ce057611cdf611c2f565b5b8235905067ffffffffffffffff811115611cfd57611cfc611c34565b5b602083019150836020820283011115611d1957611d18611c39565b5b9250929050565b60008060008060008060808789031215611d3d57611d3c611a3f565b5b600087013567ffffffffffffffff811115611d5b57611d5a611a44565b5b611d6789828a01611c3e565b96509650506020611d7a89828a01611cb5565b945050604087013567ffffffffffffffff811115611d9b57611d9a611a44565b5b611da789828a01611cca565b93509350506060611dba89828a01611bda565b9150509295509295509295565b60008060408385031215611dde57611ddd611a3f565b5b6000611dec85828601611bda565b9250506020611dfd85828601611bda565b9150509250929050565b600081519050919050565b600082825260208201905092915050565b60005b83811015611e41578082015181840152602081019050611e26565b60008484015250505050565b6000601f19601f8301169050919050565b6000611e6982611e07565b611e738185611e12565b9350611e83818560208601611e23565b611e8c81611e4d565b840191505092915050565b611ea081611c94565b82525050565b60006080820190508181036000830152611ec08187611e5e565b9050611ecf6020830186611ada565b611edc6040830185611e97565b611ee96060830184611e97565b95945050505050565b600060208284031215611f0857611f07611a3f565b5b6000611f1684828501611cb5565b91505092915050565b611f2881611bb1565b82525050565b60006080820190508181036000830152611f488187611e5e565b9050611f576020830186611e97565b611f646040830185611f1f565b611f716060830184611f1f565b95945050505050565b600080600060408486031215611f9357611f92611a3f565b5b6000611fa186828701611bda565b935050602084013567ffffffffffffffff811115611fc257611fc1611a44565b5b611fce86828701611c3e565b92509250509250925092565b600060208284031215611ff057611fef611a3f565b5b6000611ffe84828501611bda565b91505092915050565b600060408201905061201c6000830185611e97565b6120296020830184611e97565b9392505050565b7f416363657373436f6e74726f6c3a2063616e206f6e6c792072656e6f756e636560008201527f20726f6c657320666f722073656c660000000000000000000000000000000000602082015250565b600061208c602f83611e12565b915061209782612030565b604082019050919050565b600060208201905081810360008301526120bb8161207f565b9050919050565b7f4e487b7100000000000000000000000000000000000000000000000000000000600052602260045260246000fd5b6000600282049050600182168061210957607f821691505b60208210810361211c5761211b6120c2565b5b50919050565b600082905092915050565b7f4e487b7100000000000000000000000000000000000000000000000000000000600052604160045260246000fd5b60008190508160005260206000209050919050565b60006020601f8301049050919050565b600082821b905092915050565b6000600883026121be7fffffffffffffffffffffffffffffffffffffffffffffffffffffffffffffffff82612181565b6121c88683612181565b95508019841693508086168417925050509392505050565b6000819050919050565b60006122056122006121fb84611c94565b6121e0565b611c94565b9050919050565b6000819050919050565b61221f836121ea565b61223361222b8261220c565b84845461218e565b825550505050565b600090565b61224861223b565b612253818484612216565b505050565b5b818110156122775761226c600082612240565b600181019050612259565b5050565b601f8211156122bc5761228d8161215c565b61229684612171565b810160208510156122a5578190505b6122b96122b185612171565b830182612258565b50505b505050565b600082821c905092915050565b60006122df600019846008026122c1565b1980831691505092915050565b60006122f883836122ce565b9150826002028217905092915050565b6123128383612122565b67ffffffffffffffff81111561232b5761232a61212d565b5b61233582546120f1565b61234082828561227b565b6000601f83116001811461236f576000841561235d578287013590505b61236785826122ec565b8655506123cf565b601f19841661237d8661215c565b60005b828110156123a557848901358255600182019150602085019450602081019050612380565b868310156123c257848901356123be601f8916826122ce565b8355505b6001600288020188555050505b50505050505050565b600081905092915050565b50565b60006123f36000836123d8565b91506123fe826123e3565b600082019050919050565b6000612414826123e6565b9150819050919050565b7f4e487b7100000000000000000000000000000000000000000000000000000000600052601160045260246000fd5b600061245882611c94565b915061246383611c94565b925082820190508082111561247b5761247a61241e565b5b92915050565b7f4e487b7100000000000000000000000000000000000000000000000000000000600052601260045260246000fd5b60006124bb82611c94565b91506124c683611c94565b9250826124d6576124d5612481565b5b828204905092915050565b82818337600083830152505050565b60006124fc8385611e12565b93506125098385846124e1565b61251283611e4d565b840190509392505050565b60006040820190506125326000830186611f1f565b81810360208301526125458184866124f0565b9050949350505050565b7f4e487b7100000000000000000000000000000000000000000000000000000000600052603260045260246000fd5b600061258982611c94565b91507fffffffffffffffffffffffffffffffffffffffffffffffffffffffffffffffff82036125bb576125ba61241e565b5b600182019050919050565b600081549050919050565b600081905092915050565b60008190508160005260206000209050919050565b6125fa81611bb1565b82525050565b600061260c83836125f1565b60208301905092915050565b60008160001c9050919050565b600073ffffffffffffffffffffffffffffffffffffffff82169050919050565b600061265861265383612618565b612625565b9050919050565b600061266b8254612645565b9050919050565b6000600182019050919050565b600061268a826125c6565b61269481856125d1565b935061269f836125dc565b8060005b838110156126d7576126b48261265f565b6126be8882612600565b97506126c983612672565b9250506001810190506126a3565b5085935050505092915050565b60006126f0828461267f565b915081905092915050565b600060ff82169050919050565b6000612713826126fb565b915060ff82036127265761272561241e565b5b600182019050919050565b7f5265656e7472616e637947756172643a207265656e7472616e742063616c6c00600082015250565b6000612767601f83611e12565b915061277282612731565b602082019050919050565b600060208201905081810360008301526127968161275a565b9050919050565b60006127a882611c94565b91506127b383611c94565b92508282039050818111156127cb576127ca61241e565b5b92915050565b60006080820190506127e66000830187611f1f565b81810360208301526127f88186611e5e565b90506128076040830185611f1f565b6128146060830184611e97565b9594505050505056fea264697066735822122055e40b1154785fba72f13f5b4b6d67f57c8f0b95b36a4b96fd7e6dbaa2c0fd8364736f6c63430008130033",
  "linkReferences": {},
  "deployedLinkReferences": {}
}